:020000040800F2
:1000000000000120F50700086D05000873050008D1
:10001000790500087F05000885050008000000003C
:100020000000000000000000000000008B05000838
:100030009705000800000000A3050008AF050008B0
:100040003D0800083D0800083D0800083D0800087C
:100050003D0800083D0800083D0800083D0800086C
:100060003D0800083D0800083D0800083D0800085C
:100070003D0800083D0800083D0800083D0800084C
:100080003D0800083D0800083D0800083D0800083C
:100090003D0800083D0800083D0800083D0800082C
:1000A0003D0800083D0800083D0800083D0800081C
:1000B0003D0800083D0800083D0800083D0800080C
:1000C0003D0800083D0800083D0800083D080008FC
:1000D0003D080008F90200083D0800083D08000836
:1000E0003D0800083D0800083D0800083D080008DC
:1000F0003D0800083D0800083D0800083D080008CC
:100100003D0800083D0800083D0800083D080008BB
:100110003D0800083D0800083D0800083D080008AB
:100120003D0800083D0800083D0800083D0800089B
:1001300000000000000000000000000000000000BF
:1001400000000000000000000000000000000000AF
:10015000000000000000000000000000000000009F
:10016000000000000000000000000000000000008F
:10017000000000000000000000000000000000007F
:10018000000000000000000000000000000000006F
:10019000000000000000000000000000000000005F
:1001A000000000000000000000000000000000004F
:1001B000000000000000000000000000000000003F
:1001C000000000000000000000000000000000002F
:1001D000000000000000000000000000000000001F
:0401E0005FF8E0F1F3
:1001E40010B5054C237833B9044B13B10448AFF36D
:1001F40000800123237010BD68000020000000006F
:100204001828000808B5034B1BB103490348AFF392
:10021400008008BD000000006C00002018280008C1
:1002240080B483B000AF78607B681B6803F0800300
:10023400802B0CBF01230023DBB218460C37BD46CC
:1002440080BC704780B489B000AF78607B680C33A1
:10025400FB60FB6853E8003FBB60BB6843F02003CE
:10026400FB617B680C33FA69BA617B617969BA69AD
:1002740041E800233B613B69002BE7D100BF00BF8D
:100284002437BD4680BC704780B483B000AF78602B
:100294007B68DB6803F02003202B0CBF01230023C1
:1002A400DBB218460C37BD4680BC704780B483B0BF
:1002B40000AF78607B685B68DBB218460C37BD46DC
:1002C40080BC704780B483B000AF78600B46FB708D
:1002D400FA787B685A6000BF0C37BD4680BC704713
:1002E40080B500AF0248FFF7ADFF00BF80BD00BF7F
:1002F4000038014080B582B000AF0948FFF7C4FF61
:100304000346002B08D00648FFF7D0FF0346FB71D5
:10031400FB79184600F006F800BF0837BD4680BDDB
:100324000038014080B582B000AF0346FB7100BFC6
:100334000748FFF775FF0346002BF9D0FB791946F0
:100344000348FFF7BFFF00BF0837BD4680BD00BFAD
:100354000038014080B500AFFFF7C2FF00BF80BD89
:1003640080B500AFC82000F0CBFA00BF80BD00000C
:1003740080B483B000AF084B9B69074A43F0040381
:100384009361054B9B6903F004037B607B6800BFAA
:100394000C37BD4680BC70470010024080B483B067
:1003A40000AF78607B681B6803F08003802B0CBF70
:1003B40001230023DBB218460C37BD4680BC7047CE
:1003C40080B483B000AF78600B46FB70FA787B682A
:1003D4005A6000BF0C37BD4680BC704780B500AF83
:1003E40000F02CFA00F012F8FFF7C2FF00F0A8F9B1
:1003F400FFF7B0FF044801F07FFE4FF47A7000F07D
:100404007FFAFFF7ADFFF5E73028000880B590B01C
:1004140000AF07F1180328220021184601F04CFF11
:100424003B1D00221A605A609A60DA601A61012347
:10043400BB614FF48033FB6100233B620123BB6249
:1004440002237B634FF48033BB634FF4E013FB63FD
:1004540007F11803184600F07FFB0346002B01D078
:1004640000F040F80F237B600223BB600023FB6095
:100474004FF480633B6100237B613B1D02211846DE
:1004840000F0D8FE0346002B01D000F02BF800BF8B
:100494004037BD4680BD000080B586B000AFF8602F
:1004A400B9607A6000237B6111E000BF0C48FFF75C
:1004B40075FF0346002BF9D07B69BA6813441B7897
:1004C40019460748FFF77CFF7B6901337B617A6932
:1004D4007B689A42E9DB7B6818461837BD4680BDC5
:1004E4000038014080B400AF72B600BFFEE780B4AC
:1004F40083B000AF7860396000BF0C37BD4680BC64
:100504007047000080B485B000AF154B9B69144A56
:1005140043F001039361124B9B6903F00103BB6039
:10052400BB680F4BDB690E4A43F08053D3610C4B1D
:10053400DB6903F080537B607B680A4B5B68FB607C
:10054400FB6823F0E063FB60FB6843F00073FB602F
:10055400044AFB68536000BF1437BD4680BC704733
:10056400001002400000014080B400AFFEE780B4F8
:1005740000AFFEE780B400AFFEE780B400AFFEE753
:1005840080B400AFFEE780B400AF00BFBD4680BCBE
:10059400704780B400AF00BFBD4680BC704780B4D4
:1005A40000AF00BFBD4680BC704780B500AF00F00F
:1005B4008BF900BF80BD80B586B000AFF860B9602C
:1005C4007A6000237B610AE0AFF300800146BB68D8
:1005D4005A1CBA60CAB21A707B6901337B617A69AA
:1005E4007B689A42F0DB7B6818461837BD4680BDAD
:1005F40080B483B000AF78604FF0FF3318460C37F7
:10060400BD4680BC704780B483B000AF7860396069
:100614003B684FF400525A60002318460C37BD461D
:1006240080BC704780B483B000AF78600123184663
:100634000C37BD4680BC704780B485B000AFF8600D
:10064400B9607A60002318461437BD4680BC7047F1
:1006540080B586B000AF7860144A154BD31A7B611D
:100664007B693B61134B1B68002B02D1114B124A6F
:100674001A60104B1A687B6813443A699A4207D28D
:1006840001F068FE03460C221A604FF0FF3309E0C4
:10069400084B1B68FB60074B1A687B681344054AC8
:1006A4001360FB6818461837BD4680BD0000012062
:1006B4000004000084000020D801002080B400AFB2
:1006C40000BFBD4680BC704780B483B000AF786083
:1006D4007B68DB6843F400527B68DA6000BF0C3748
:1006E400BD4680BC704780B483B000AF78607B683F
:1006F4001B6923F490427B681A617B685B6923F071
:100704002A027B685A6100BF0C37BD4680BC704723
:1007140080B485B000AF7860084B9A6907497B685C
:1007240013438B61054B9A697B681340FB60FB683C
:1007340000BF1437BD4680BC704700BF00100240A4
:1007440080B58CB000AF07F1140300221A605A6020
:100754009A60DA601A615A619A613B4600221A6013
:100764005A609A60DA601A614FF48040FFF7D0FF54
:100774000420FFF7CDFF1A4B3B6009237B60032362
:10078400BB600023FB603B461946164801F00CF899
:10079400154B3B6004237B603B461946114801F02E
:1007A40003F84FF4E1337B610023BB610023FB6159
:1007B40000233B620C237B620023BB620023FB62A9
:1007C40007F114031946094801F07EFA0748FFF7B8
:1007D4008AFF0648FFF778FF00BF3037BD4680BD6B
:1007E400020002040008014004000404003801402F
:1007F400FFF764FF0B480C490C4A002302E0D4586D
:10080400C4500433C4188C42F9D3094A094C002358
:1008140001E013600432A242FBD301F0A1FDFFF713
:10082400DDFD704700000020680000205C290008FE
:1008340068000020D8010020FEE7000080B500AF6A
:10084400084B1B68074A43F010031360032000F0B1
:100854002BF90F2000F008F8FFF754FE0023184688
:1008640080BD00BF0020024080B582B000AF786038
:10087400124B1A68124B1B7819464FF47A73B3FB68
:10088400F1F3B2FBF3F3184600F05AF90346002BD8
:1008940001D001230EE07B680F2B0AD8002279686F
:1008A4004FF0FF3000F020F9064A7B681360002304
:1008B40000E0012318460837BD4680BD0000002033
:1008C400080000200400002080B400AF054B1B7812
:1008D4001A46054B1B681344034A136000BFBD4608
:1008E40080BC7047080000208800002080B400AF5E
:1008F400024B1B681846BD4680BC70478800002028
:1009040080B584B000AF7860FFF7F0FFB8607B6813
:10091400FB60FB68B3F1FF3F05D00A4B1B781A4616
:10092400FB681344FB6000BFFFF7E0FF0246BB68AF
:10093400D31AFA689A42F7D800BF00BF1037BD46F1
:1009440080BD00BF0800002080B485B000AF78608F
:100954007B6803F00703FB600C4BDB68BB60BA6881
:100964004FF6FF031340BB60FB681A02BB681343D6
:1009740043F0BF6343F40033BB60044ABB68D360F5
:1009840000BF1437BD4680BC704700BF00ED00E0D7
:1009940080B400AF044BDB681B0A03F0070318465E
:1009A400BD4680BC704700BF00ED00E080B483B05A
:1009B40000AF03463960FB7197F90730002B0ADB5F
:1009C4003B68DAB20C4997F907301201D2B20B44F2
:1009D40083F800230AE03B68DAB20849FB7903F0A4
:1009E4000F03043B1201D2B20B441A7600BF0C373A
:1009F400BD4680BC704700BF00E100E000ED00E0B0
:100A040080B489B000AFF860B9607A60FB6803F025
:100A14000703FB61FB69C3F10703042B28BF04230D
:100A2400BB61FB690433062B02D9FB69033B00E07D
:100A340000237B614FF0FF32BB6902FA03F3DA4310
:100A4400BB681A407B699A404FF0FF317B6901FA19
:100A540003F3D9437B680B40134318462437BD4640
:100A640080BC704780B582B000AF78607B68013B82
:100A7400B3F1807F01D301230FE00A4A7B68013B75
:100A840053600F214FF0FF30FFF790FF054B00221A
:100A94009A60044B07221A60002318460837BD46A3
:100AA40080BD00BF10E000E080B582B000AF786088
:100AB4007B68072B0FD07B68062B0CD07B68052B3B
:100AC40009D07B68042B06D07B68032B03D09121CB
:100AD4000448FFF70CFD7868FFF736FF00BF0837BE
:100AE400BD4680BD4028000880B586B000AF0346EF
:100AF400B9607A60FB7300237B617B680F2B03D999
:100B0400A9210E48FFF7F3FCBB680F2B03D9AA21D8
:100B14000A48FFF7ECFCFFF73BFF78617A68B96895
:100B24007869FFF76DFF024697F90F3011461846B2
:100B3400FFF73CFF00BF1837BD4680BD40280008C2
:100B440080B582B000AF78607868FFF78BFF03460A
:100B540018460837BD4680BD80B586B000AF7860C2
:100B64007B68002B01D101235AE37B681B68002BAF
:100B74001CD07B681B6803F00103002B16D17B6833
:100B84001B6803F00203002B10D17B681B6803F081
:100B94000803002B0AD17B681B6803F00403002BB5
:100BA40004D140F265118F48FFF7A1FC7B681B68F4
:100BB40003F00103002B00F09A807B685B68002B34
:100BC4000ED07B685B68B3F5803F09D07B685B68B7
:100BD400B3F5A02F04D040F26B118248FFF787FCD5
:100BE400814B5B6803F00C03042B0CD07E4B5B68D9
:100BF40003F00C03082B12D17B4B5B6803F48033A6
:100C0400B3F5803F0BD1784B1B6803F40033002B02
:100C14006CD07B685B68002B68D1012300E37B68A0
:100C24005B68B3F5803F06D16F4B1B686E4A43F493
:100C3400803313602EE07B685B68002B0CD16A4B19
:100C44001B68694A23F480331360674B1B68664A48
:100C540023F4802313601DE07B685B68B3F5A02F49
:100C64000CD1614B1B68604A43F4802313605E4BD4
:100C74001B685D4A43F4803313600BE05A4B1B68D6
:100C8400594A23F480331360574B1B68564A23F4A4
:100C9400802313607B685B68002B13D0FFF726FE6C
:100CA400386108E0FFF722FE02463B69D31A642B41
:100CB40001D90323B4E24C4B1B6803F40033002B2B
:100CC400F0D014E0FFF712FE386108E0FFF70EFEE3
:100CD40002463B69D31A642B01D90323A0E2424B99
:100CE4001B6803F40033002BF0D100E000BF7B68E5
:100CF4001B6803F00203002B00F080807B681B69F3
:100D0400002B08D07B681B69012B04D040F29F1193
:100D14003448FFF7ECFB7B685B691F2B04D94FF465
:100D2400D0713048FFF7E3FB2F4B5B6803F00C03F3
:100D3400002B0BD02C4B5B6803F00C03082B1CD14D
:100D4400294B5B6803F48033002B16D1264B1B68B8
:100D540003F00203002B05D07B681B69012B01D033
:100D640001235DE2204B1B6823F0F8027B685B697A
:100D7400DB001D4913430B6040E07B681B69002BBB
:100D840020D01A4B01221A60FFF7B0FD386108E049
:100D9400FFF7ACFD02463B69D31A022B01D90323AA
:100DA4003EE2114B1B6803F00203002BF0D00E4B04
:100DB4001B6823F0F8027B685B69DB000A49134374
:100DC4000B601BE0094B00221A60FFF78FFD3861AE
:100DD4000EE0FFF78BFD02463B69D31A022B07D9BD
:100DE40003231DE27C280008001002400000424258
:100DF4007D4B1B6803F00203002BEAD17B681B6860
:100E040003F00803002B40D07B689B69002B08D0BB
:100E14007B689B69012B04D04FF4F0717348FFF792
:100E240066FB7B689B69002B19D0714B01221A6009
:100E3400FFF75CFD386108E0FFF758FD02463B69A7
:100E4400D31A022B01D90323EAE1674B5B6A03F04F
:100E54000203002BF0D0012000F0D0FB15E0644B1E
:100E640000221A60FFF742FD386108E0FFF73EFDFB
:100E740002463B69D31A022B01D90323D0E15A4B12
:100E84005B6A03F00203002BF0D17B681B6803F05C
:100E94000403002B00F0BF800023FB757B68DB6834
:100EA400002B0CD07B68DB68012B08D07B68DB68E7
:100EB400052B04D040F20F214C48FFF718FB4A4B96
:100EC400DB6903F08053002B0DD1474BDB69464AA5
:100ED40043F08053D361444BDB6903F08053BB6020
:100EE400BB680123FB75434B1B6803F48073002B21
:100EF40018D1404B1B683F4A43F480731360FFF7DB
:100F0400F5FC386108E0FFF7F1FC02463B69D31AAF
:100F1400642B01D9032383E1364B1B6803F48073EC
:100F2400002BF0D07B68DB68012B06D12E4B1B6AAB
:100F34002D4A43F0010313622DE07B68DB68002B2C
:100F44000CD1294B1B6A284A23F001031362264B58
:100F54001B6A254A23F0040313621CE07B68DB68E8
:100F6400052B0CD1204B1B6A1F4A43F00403136268
:100F74001D4B1B6A1C4A43F0010313620BE01A4B1E
:100F84001B6A194A23F001031362174B1B6A164AA2
:100F940023F0040313627B68DB68002B15D0FFF792
:100FA400A5FC38610AE0FFF7A1FC02463B69D31AAD
:100FB40041F28832934201D9032331E10A4B1B6A7F
:100FC40003F00203002BEED01CE0FFF78FFC386126
:100FD40012E0FFF78BFC02463B69D31A41F28832D8
:100FE400934209D903231BE1001002407C28000826
:100FF40080044242007000408B4B1B6A03F00203E2
:10100400002BE6D1FB7D012B05D1874BDB69864A9A
:1010140023F08053D3617B68DB69002B0CD07B68A1
:10102400DB69012B08D07B68DB69022B04D040F21A
:10103400AD217E48FFF75BFA7B68DB69002B00F08B
:10104400EE80794B5B6803F00C03082B00F0CE8034
:101054007B68DB69022B40F0B2807B681B6A002B43
:1010640009D07B681B6AB3F5803F04D040F2B621F7
:101074006E48FFF73CFA7B685B6A002B4AD07B68BA
:101084005B6AB3F5802F45D07B685B6AB3F5002FAC
:1010940040D07B685B6AB3F5402F3BD07B685B6ACA
:1010A400B3F5801F36D07B685B6AB3F5A01F31D0DF
:1010B4007B685B6AB3F5C01F2CD07B685B6AB3F5B1
:1010C400E01F27D07B685B6AB3F5001F22D07B68E2
:1010D4005B6AB3F5101F1DD07B685B6AB3F5201FF4
:1010E40018D07B685B6AB3F5301F13D07B685B6AEA
:1010F400B3F5401F0ED07B685B6AB3F5501F09D06F
:101104007B685B6AB3F5601F04D040F2B72147489F
:10111400FFF7EDF9464B00221A60FFF7E7FB386151
:1011240008E0FFF7E3FB02463B69D31A022B01D91F
:10113400032375E03C4B1B6803F00073002BF0D1D4
:101144007B681B6AB3F5803F16D17B689B68002BD4
:1011540009D07B689B68B3F5003F04D040F2CD21F1
:101164003248FFF7C4F9304B5B6823F400327B68E4
:101174009B682D4913434B602B4B5B6823F474121B
:101184007B68196A7B685B6A0B43274913434B608E
:10119400274B01221A60FFF7A9FB386108E0FFF72B
:1011A400A5FB02463B69D31A022B01D9032337E07E
:1011B4001D4B1B6803F00073002BF0D02FE01C4B79
:1011C40000221A60FFF792FB386108E0FFF78EFBFC
:1011D40002463B69D31A022B01D9032320E0124BA8
:1011E4001B6803F00073002BF0D118E07B68DB6907
:1011F400012B01D1012313E00B4B5B68FB60FB68FF
:1012040003F480327B681B6A9A4206D1FB6803F4BC
:1012140070127B685B6A9A4201D0012300E00023CC
:1012240018461837BD4680BD001002407C280008CF
:101234006000424280B584B000AF786039607B685A
:10124400002B01D1012376E17B681B6803F00103C5
:10125400002B16D17B681B6803F00203002B10D10E
:101264007B681B6803F00403002B0AD17B681B68AE
:1012740003F00803002B04D140F236317448FFF721
:1012840036F93B68002B0AD03B68012B07D03B683A
:10129400022B04D040F237316D48FFF728F96D4B2B
:1012A4001B6803F007033A689A4210D9694B1B681C
:1012B40023F0070267493B6813430B60654B1B68C7
:1012C40003F007033A689A4201D0012333E17B68B3
:1012D4001B6803F00203002B49D07B681B6803F0F2
:1012E4000403002B05D05C4B5B685B4A43F4E0636A
:1012F40053607B681B6803F00803002B05D0564B32
:101304005B68554A43F4605353607B689B68002BC9
:1013140024D07B689B68802B20D07B689B68902BB3
:101324001CD07B689B68A02B18D07B689B68B02B73
:1013340014D07B689B68C02B10D07B689B68D02B33
:101344000CD07B689B68E02B08D07B689B68F02BF3
:1013540004D040F25D313E48FFF7C9F83E4B5B686C
:1013640023F0F0027B689B683B4913434B607B6826
:101374001B6803F00103002B51D07B685B68002BD2
:101384000CD07B685B68012B08D07B685B68022B00
:1013940004D04FF459712E48FFF7A9F87B685B68B5
:1013A400012B07D12C4B1B6803F40033002B15D100
:1013B4000123C0E07B685B68022B07D1264B1B68C6
:1013C40003F00073002B09D10123B4E0224B1B6806
:1013D40003F00203002B01D10123ACE01E4B5B6838
:1013E40023F003027B685B681B4913434B60FFF7E0
:1013F4007DFAF8600AE0FFF779FA0246FB68D31A2F
:1014040041F28832934201D9032394E0124B5B6882
:1014140003F00C027B685B689B009A42EBD10D4B96
:101424001B6803F007033A689A4217D2094B1B68FA
:1014340023F0070207493B6813430B60054B1B6805
:1014440003F007033A689A4208D0012373E000BF0F
:101454007C28000800200240001002407B681B68C2
:1014640003F00403002B25D07B68DB68002B18D025
:101474007B68DB68B3F5806F13D07B68DB68B3F5FA
:10148400A06F0ED07B68DB68B3F5C06F09D07B68B2
:10149400DB68B3F5E06F04D040F2A2312848FFF7CF
:1014A40026F8284B5B6823F4E0627B68DB682549F7
:1014B40013434B607B681B6803F00803002B26D0A2
:1014C4007B681B69002B18D07B681B69B3F5806FA0
:1014D40013D07B681B69B3F5A06F0ED07B681B69C2
:1014E400B3F5C06F09D07B681B69B3F5E06F04D016
:1014F40040F2A9311248FEF7FAFF124B5B6823F45D
:1015040060527B681B69DB000E4913434B6000F09B
:1015140021F802460B4B5B681B0903F00F030A49D1
:10152400CB5C22FA03F3094A1360094B1B68184683
:10153400FFF79AF9002318461037BD4680BD00BF57
:101544007C28000800100240282900080000002020
:101554000400002080B487B000AF0023FB600023A8
:10156400BB6000237B6100237B6000233B611E4B37
:101574005B68FB60FB6803F00C03042B02D0082BB0
:1015840003D027E0194B3B6127E0FB689B0C03F079
:101594000F03174AD35C7B60FB6803F48033002B92
:1015A40010D0114B5B685B0C03F00103114AD35C50
:1015B400BB607B680D4A03FB02F2BB68B2FBF3F32A
:1015C4007B6104E07B680C4A02FB03F37B617B696B
:1015D4003B6102E0054B3B6100BF3B6918461C3789
:1015E400BD4680BC704700BF0010024000127A0064
:1015F400402900085029000800093D0080B485B046
:1016040000AF78600A4B1B680A4AA2FB03235B0AFB
:101614007A6802FB03F3FB6000BFFB685A1EFA60A2
:10162400002BF9D100BF00BF1437BD4680BC704702
:1016340000000020D34D621090B488B000AFF86071
:10164400B9607A60FB681A46BB681B0E13441C46DB
:101654002268BB687B617B6993FAA3F33B613B69B6
:10166400B3FA83F3DBB29B000F2101FA03F3DB43EC
:101674001A40BB68FB61FB6993FAA3F3BB61BB69C6
:10168400B3FA83F3DBB29B00796801FA03F31343E3
:10169400236000BF2037BD4690BC704790B488B02B
:1016A40000AFF860B9607A60FB681A46BB681B0E2D
:1016B40013441C462268BB687B617B6993FAA3F3DD
:1016C4003B613B69B3FA83F3DBB29B00032101FA6C
:1016D40003F3DB431A40BB68FB61FB6993FAA3F392
:1016E400BB61BB69B3FA83F3DBB29B00796801FA8F
:1016F40003F31343236000BF2037BD4690BC7047FB
:1017040090B488B000AFF860B9607A60FB681A469C
:10171400BB681B0E13441C462268BB687B617B6953
:1017240093FAA3F33B613B69B3FA83F3DBB29B0007
:10173400042101FA03F3DB431A40BB68FB61FB6934
:1017440093FAA3F3BB61BB69B3FA83F3DBB29B00E7
:10175400796801FA03F31343236000BF2037BD46C1
:1017640090BC704780B487B000AFF860B9607A600D
:10177400FB68DA68BB681B0ADB431A40BB681B0AB8
:101784007B617B6993FAA3F33B613B69B3FA83F30F
:10179400DBB219467B688B401A43FB68DA6000BFF2
:1017A4001C37BD4680BC704780B588B000AF7860F8
:1017B40039607B68684A93421BD07B68674A9342CE
:1017C40017D07B68664A934213D07B68654A93427C
:1017D4000FD07B68644A93420BD07B68634A934280
:1017E40007D07B68624A934203D0A2216148FEF786
:1017F4007EFE3B681B6823F07B43002B05D03B68CF
:101804001B6803F07B43002B03D0A3215948FEF748
:101814006EFE3B681B681B021B0C7B617B693B6192
:101824003B6993FAA3F3FB60FB68B3FA83F3DBB27F
:10183400FB6184E00122FB699A407B691340002B21
:101844007AD0FB69072B06D840F20112FB6902FA31
:1018540003F3BB6108E0FB69083B4FF0011202FA95
:1018640003F343F08063BB613B685B68082B12D1D0
:101874003B681B69002B07D03B681B69012B03D015
:10188400BE213C48FEF733FE3B681B691A46B96922
:101894007868FFF767FF3B685B68002B13D03B68F1
:1018A4005B68042B0FD03B685B68082B0BD03B684C
:1018B4005B68012B07D03B685B68092B03D0C5210B
:1018C4002C48FEF714FE3B685B681A46B9697868D1
:1018D400FFF7B2FE3B685B68012B03D03B685B6893
:1018E400092B29D13B689B68022B0BD03B689B6872
:1018F400012B07D03B689B68032B03D0CD211D48E7
:10190400FEF7F5FD3B68DB68002B07D03B68DB681E
:10191400042B03D0CE211748FEF7E9FD3B689B68F2
:101924001A46B9697868FFF7B9FE3B68DB681A465E
:10193400B9697868FFF7E4FEFB690133FB617A69F2
:10194400FB6922FA03F3002B7FF474AF00231846DB
:101954002037BD4680BD00BF00080140000C014097
:10196400001001400014014000180140001C014017
:1019740000200140B428000880B400AF034B5B682A
:1019840003F00C031846BD4680BC704700100240AB
:1019940080B400AF034B5B6803F0F0031846BD4608
:1019A40080BC70470010024080B400AF034B5B68FA
:1019B40003F4E0631846BD4680BC70470010024043
:1019C40080B400AF034B5B6803F460531846BD4614
:1019D40080BC70470010024080B400AF034B5B68CA
:1019E40003F480331846BD4680BC704700100240A3
:1019F40080B400AF034B5B6803F470131846BD4614
:101A040080BC70470010024080B400AF044B5B6898
:101A14005B0C03F001031846BD4680BC704700BF51
:101A24000010024080B582B000AF786000F020F86A
:101A340002467B681A607B681B68184600F03EF813
:101A440002467B685A607B685B68184600F04CF875
:101A540002467B689A607B685B68184600F058F819
:101A640002467B68DA6000BF0837BD4680BD0000CF
:101A740080B582B000AF00237B60FFF77DFF034693
:101A8400082B0CD0082B0ED8002B02D0042B03D02B
:101A940009E0094B7B6009E0074B7B6006E000F03E
:101AA4004BF8786002E0044B7B6000BF7B6818460B
:101AB4000837BD4680BD00BF00127A0080B582B0F1
:101AC40000AF7860FFF764FF03461B0903F00F03C0
:101AD400044AD35C1A467B68D34018460837BD468F
:101AE40080BD00BF2829000880B582B000AF7860AF
:101AF400FFF75AFF03461B0A044AD35C1A467B6865
:101B0400D34018460837BD4680BD00BF38290008B9
:101B140080B582B000AF7860FFF752FF0346DB0A5E
:101B2400044AD35C1A467B68D34018460837BD463E
:101B340080BD00BF3829000880B582B000AF002303
:101B44007B6000233B60FFF747FF38603B68002B56
:101B540004D03B68B3F5803F03D00BE00D4B7B60B2
:101B64000BE0FFF751FF034601330B4AB2FBF3F3DB
:101B74007B6002E0074B7B6000BFFFF739FF034641
:101B84009B0C02337A6802FB03F318460837BD4600
:101B940080BD00BF00093D0000127A0080B483B00C
:101BA40000AF78607B68DB6803F40053B3F5005F33
:101BB4000CBF01230023DBB218460C37BD4680BCA2
:101BC400704780B483B000AF786039607B681B696C
:101BD40023F440523B681A437B681A6100BF0C37F8
:101BE400BD4680BC704780B483B000AF7860396074
:101BF4007B685B6923F440723B681A437B685A61D3
:101C040000BF0C37BD4680BC7047000080B485B06F
:101C140000AFF860B9607A60BA6813469B00134459
:101C24009A001A447B689B00B2FBF3F3254AA2FB9B
:101C340003235B099BB21B0199B2BA6813469B004C
:101C440013449A001A447B689B00B2FBF3F21D4BC9
:101C5400A3FB02035B09642000FB03F3D31A1B01FB
:101C64003233184AA2FB03235B099BB203F0F0034F
:101C74009BB20B4499B2BA6813469B0013449A0072
:101C84001A447B689B00B2FBF3F20E4BA3FB0203E6
:101C94005B09642000FB03F3D31A1B013233094AA6
:101CA400A2FB03235B099BB203F00F039BB20B441B
:101CB4009BB21A46FB689A6000BF1437BD4680BCCD
:101CC400704700BF1F85EB5180B588B000AF7860C6
:101CD40039600123FB770023BB617B68744A93421C
:101CE40013D07B68734A93420FD07B68724A934245
:101CF4000BD07B68714A934207D07B68704A934249
:101D040003D0CD216F48FEF7F2FB3B681B686E4A97
:101D1400934203D9CE216B48FEF7E9FB3B685B682D
:101D2400002B08D03B685B68B3F5805F03D0CF21FC
:101D34006448FEF7DCFB3B689B68B3F5805F11D019
:101D44003B689B68002B0DD03B689B68B3F5405FF4
:101D540008D03B689B68B3F5005F03D0D021594895
:101D6400FEF7C5FB3B68DB68002B0DD03B68DB68E6
:101D7400B3F5806F08D03B68DB68B3F5C06F03D060
:101D8400D1215048FEF7B3FB3B681B69002B0FD0F1
:101D94003B681B69042B0BD03B681B69082B07D0DD
:101DA4003B681B690C2B03D0D2214648FEF79FFBEE
:101DB4003B685B69002B12D03B685B69B3F5807F9D
:101DC4000DD03B685B69B3F5007F08D03B685B6965
:101DD400B3F5407F03D0D3213A48FEF788FB7868F7
:101DE400FFF7DCFE0346002B5CD17B68DB6823F441
:101DF400B05323F00C033A6851683A68D26811432F
:101E04003A6812690A431A437B68DA603B689B6844
:101E140019467868FFF7D5FE3B685B691946786810
:101E2400FFF7E1FE07F108031846FFF7FBFD7B68A7
:101E34001F4A934202D17B69BB611AE07B681D4A49
:101E4400934202D13B69BB6113E07B681A4A934217
:101E540002D13B69BB610CE07B68184A934202D112
:101E64003B69BB6105E07B68154A934201D13B693C
:101E7400BB61BB69002B15D03B681B68002B11D0DC
:101E84000023FB773B681B681A46B9697868FFF73B
:101E9400BDFE7B689B680F2B04D840F235110948BE
:101EA400FEF725FBFB7F18462037BD4680BD00BFEB
:101EB400003801400044004000480040004C00400D
:101EC40000500040EC28000820AA4400002310B56C
:101ED4000446C0E90033C0E904338360818143666A
:101EE400C2818361194608225C3000F0E5F90D4B8C
:101EF400246263620C4BA3620C4BE3620C4B2363BE
:101F04000C4B9C4206D003F16802944202D0D033B9
:101F14009C4205D104F15800BDE8104000F044BAD9
:101F240010BD00BF0D2100082F2100086721000803
:101F34008B2100088C000020024A0349034800F06A
:101F440069B800BF0C000020A1260008180000207A
:101F540041680C4B10B59942044601D000F09EFB39
:101F6400A168094B994202D0204600F097FBE16832
:101F7400064B994204D02046BDE8104000F08EBBC9
:101F840010BD00BF8C000020F40000205C01002084
:101F940010B50B4B0B4C0C4A20461A60042100224E
:101FA400FFF794FF04F1680001220921FFF78EFF77
:101FB40004F1D0000222BDE810401221FFF786BFD1
:101FC400C40100208C0000203D1F0008014800F0DF
:101FD400ECB900BFCD010020014800F0E7B900BF13
:101FE400CD01002010B50446FFF7F0FF236A1BB1B2
:101FF400BDE81040FFF7F0BF044B2362044B1B689D
:10200400002BF5D1FFF7C4FFF2E700BF551F00080E
:10201400C40100202DE9F8430746884614460026EB
:10202400D4E90195B9F1010905D52468002CF7D14B
:102034003046BDE8F883AB89012B07D9B5F90E30DA
:10204400013303D029463846C04706436835E9E7DB
:10205400036A70B505460E4684680BB9FFF7C2FFE4
:10206400636EDB0705D4A389980502D4A06D00F044
:102074009CF9A389190713D523698BB1013EA36881
:1020840016F8011F013BA360E9B9002B2EDA2246A2
:102094000A21284600F07BF8013007D00A2507E022
:1020A4002146284600F0B0F80028E7D04FF0FF356D
:1020B400636EDA0705D4A3899B0502D4A06D00F0F2
:1020C40075F9284670BD002B04DAA2699A4206DC31
:1020D4000A2904D023685A1C22601970CFE72246CB
:1020E400284600F054F80130C9D1DFE70A252368F7
:1020F4005A1C22601D70DBE7024B01461868FFF78B
:10210400A7BF00BF6400002010B50C46B1F90E1043
:1021140000F0FCF80028ABBF636DA3891B1823F4FF
:102124008053ACBF6365A38110BD2DE9F0411F4608
:102134008B890546DB050C46164605D5022300228D
:10214400B1F90E1000F0D0F8A389324623F480537D
:10215400A38128463B46B4F90E10BDE8F04100F0D7
:10216400E7B810B50C46B1F90E1000F0BDF8431CE9
:10217400A38915BF606523F4805343F48053A3817E
:1021840018BFA38110BDB1F90E1000F09DB8F8B5C9
:102194000E461446054618B1036A0BB9FFF722FF31
:1021A400A369A360A3891A0725D523691BB32368F0
:1021B4002269F6B2981A63693746834204DC2146E1
:1021C400284600F06BFAE0B9A368013BA3602368DA
:1021D4005A1C22601E706269431C9A4204D0A3896F
:1021E400DB0706D50A2E04D12146284600F056FA0C
:1021F40038B93846F8BD2146284600F005F80028CD
:10220400D5D04FF0FF37F4E738B52A4B05461868A8
:102214000C4618B1036A0BB9FFF7E4FEA389B4F9BD
:102224000C20180722D4D90607D409232B6042F0C6
:1022340040034FF0FF30A38134E0580712D5616B9F
:1022440041B104F14403994202D0284600F0B0F8A9
:1022540000236363A38923F02403A3810023636021
:1022640023692360A38943F00803A38123694BB93D
:10227400A38903F42073B3F5007F03D021462846D5
:1022840000F059FAA089B4F90C2010F001030AD027
:102294000023A36063695B42A361236943B910F01F
:1022A4008000C4D138BD810758BF6369A360F4E7D7
:1022B4000020F7E76400002003460244934200D163
:1022C400704703F8011BF9E738B50023054D0446B0
:1022D40008462B60FEF78CF9431C02D12B6803B12E
:1022E400236038BDC801002038B5044608461146AD
:1022F4000022054D2A601A46FEF79EF9431C02D1BE
:102304002B6803B1236038BDC801002038B50446EA
:10231400084611460022054D2A601A46FEF74BF97D
:10232400431C02D12B6803B1236038BDC8010020CF
:1023340038B50446084611460022054D2A601A465F
:10234400FEF7AAF8431C02D12B6803B1236038BD01
:10235400C8010020014B1868704700BF64000020CA
:1023640070B500260C4D0D4C641BA410A64209D177
:1023740000F050FA00260A4D0A4C641BA410A64231
:1023840005D170BD55F8043B98470136EEE755F882
:10239400043B98470136F2E7542900085429000801
:1023A40054290008582900087047704770470000F6
:1023B40038B50546002940D051F8043C0C1F002BC9
:1023C400B8BFE41800F0DCF81C4A136833B9636042
:1023D40014602846BDE8384000F0D8B8A34208D9B4
:1023E400206821188B4201BF19685B6809182160B5
:1023F400EDE71A465B680BB1A342FAD9116850188D
:10240400A0420BD120680144501883421160E0D1EE
:1024140018685B68084410605360DAE702D90C233B
:102424002B60D6E7206821188B4201BF19685B68CE
:102434000918216063605460CBE738BDD0010020E7
:1024440070B50E4E0C463168054611B900F0D2F94C
:1024540030602146284600F0CDF9431C0AD0C41C44
:1024640024F00304A04207D0211A284600F0C2F940
:10247400013001D14FF0FF34204670BDD40100205B
:102484002DE9F843CD1C25F0030508350C2D38BF84
:102494000C25002D074601DBA94205D90C23002693
:1024A4003B603046BDE8F883DFF8D08000F068F880
:1024B400D8F800301C465CBB29463846FFF7C0FFFD
:1024C400431C044655D1D8F800402646002E45D179
:1024D400002C48D023683146384604EB030900F049
:1024E40089F981453FD1216838466D1A2946FFF79D
:1024F400A7FF013037D023682B442360D8F800307D
:10250400002B38D05A68A2422BD100225A600FE027
:102514002268521B1FD40B2A17D96119A3422560C4
:1025240018BF5960636808BFC8F8001062514B6057
:10253400384604F10B0600F029F826F00706231D9F
:10254400F21AAED09B1BA350ABE7A3426268DDD165
:10255400C8F80020ECE723466468ACE734467668A4
:10256400B4E71346CCE70C2338463B6000F00EF882
:1025740097E72560DCE75B60FFDE00BFD001002049
:102584000148FFF712BF00BFCC0100200148FFF74C
:102594000DBF00BFCC0100208A89F8B5054610079D
:1025A4000C4657D44B68002B04DC0B6C002B01DC6D
:1025B4000020F8BDE66A002EFAD0002312F48052FF
:1025C4002F68216A2B6032D0606DA3895A0705D524
:1025D4006368C01A636B0BB1236CC01A00230246F4
:1025E400E66A2846216AB047431CA38906D12968B4
:1025F4001D292BD8284A0A41D60727D40022626015
:102604002269D904226004D5421C01D12B6803B984
:102614006065616B2F600029CAD004F144039942BC
:1026240002D02846FFF7C4FE00206063C1E70123FF
:102634002846B047411CC8D12B68002BC5D01D2BA0
:1026440001D0162B01D12F60B2E7A38943F04003D8
:10265400A381AEE70F69002FAAD0930718BF002308
:102664000E6808BF4B69F61B0F608B60002E9FDD60
:1026740033463A462846216AD4F828C0E047002861
:1026840006DCA3894FF0FF3043F04003A38190E7B9
:102694000744361AEAE700BFFEFFBFDF38B50B690F
:1026A40005460C4613B90025284638BD18B1036AFF
:1026B4000BB9FFF797FCB4F90C30002BF3D0626E22
:1026C400D00704D4990502D4A06DFFF76EFE284606
:1026D4002146FFF761FF636E0546DA07E4D4A38958
:1026E4009B05E1D4A06DFFF761FEDDE770B50C46F4
:1026F400B1F90E10154600291E4696B00CDAA389CE
:10270400002113F0800F0CBF4FF48063402300209E
:1027140031602B6016B070BD6A4600F049F800289D
:10272400EDDB019901F47041A1F50053594259417F
:102734004FF48063EBE78B8973B59D0706460C461F
:1027440007D504F14703236023610123636102B0C9
:1027540070BD6A4601ABFFF7C9FF009905463046D4
:10276400FFF78EFE48B9B4F90C309A05EFD423F084
:10277400030343F00203A381E3E7A389206043F04A
:102784008003A381009B20616361019B5BB13046A0
:10279400B4F90E1000F01EF828B1A38923F0030346
:1027A40043F00103A381A3891D43A581CFE7000062
:1027B40038B50023064D0446084611462B60FDF744
:1027C40022FF431C02D12B6803B1236038BD00BF34
:1027D400C801002038B50023054D044608462B6087
:1027E400FDF720FF431C02D12B6803B1236038BDE1
:1027F400C801002038B50023054D044608462B6067
:10280400FDF726FF431C02D12B6803B1236038BDBA
:10281400C8010020F8B500BFF8BC08BC9E4670474C
:0C282400F8B500BFF8BC08BC9E46704729
:1028300048656C6C6F2053544D33320D000000001E
:102840002E2E2F447269766572732F53544D333296
:10285000463178785F48414C5F4472697665722FE3
:102860005372632F73746D3332663178785F6861A9
:102870006C5F636F727465782E6300002E2E2F4498
:102880007269766572732F53544D333246317878BE
:102890005F48414C5F4472697665722F5372632FB3
:1028A00073746D3332663178785F68616C5F726320
:1028B000632E63002E2E2F447269766572732F5338
:1028C000544D3332463178785F48414C5F447269E9
:1028D0007665722F5372632F73746D33326631785D
:1028E000785F6C6C5F6770696F2E63002E2E2F44CB
:1028F0007269766572732F53544D3332463178784E
:102900005F48414C5F4472697665722F5372632F42
:1029100073746D3332663178785F6C6C5F75736198
:1029200072742E6300000000000000000000000030
:102930000102030406070809000000000102030465
:1029400002030405060708090A0B0C0D0E0F1010F0
:042950000102000080
:04295400090200086C
:04295800E50100088D
:10295C000024F40010000000010000000000000042
:10296C00030000008C000020000000008C00002000
:10297C00F40000205C0100200000000000000000BA
:10298C00000000000000000000000000000000003B
:10299C00000000000000000000000000000000002B
:1029AC00000000000000000000000000000000001B
:0829BC000000000018000020DB
:04000005080007F5F3
:00000001FF
