:020000040800F2
:10000000000001202D0800087D0500088305000878
:10001000890500088F05000895050008000000000C
:100020000000000000000000000000009B05000828
:10003000A705000800000000B3050008BF05000880
:10004000750800087508000875080008750800089C
:10005000750800087508000875080008750800088C
:10006000750800087508000875080008750800087C
:10007000750800087508000875080008750800086C
:10008000750800087508000875080008750800085C
:10009000750800087508000875080008750800084C
:1000A000750800087508000875080008750800083C
:1000B000750800087508000875080008750800082C
:1000C000750800087508000875080008750800081C
:1000D00075080008F902000875080008750800088E
:1000E00075080008750800087508000875080008FC
:1000F00075080008750800087508000875080008EC
:1001000075080008750800087508000875080008DB
:1001100075080008750800087508000875080008CB
:1001200075080008750800087508000875080008BB
:1001300000000000000000000000000000000000BF
:1001400000000000000000000000000000000000AF
:10015000000000000000000000000000000000009F
:10016000000000000000000000000000000000008F
:10017000000000000000000000000000000000007F
:10018000000000000000000000000000000000006F
:10019000000000000000000000000000000000005F
:1001A000000000000000000000000000000000004F
:1001B000000000000000000000000000000000003F
:1001C000000000000000000000000000000000002F
:1001D000000000000000000000000000000000001F
:0401E0005FF8E0F1F3
:1001E40010B5054C237833B9044B13B10448AFF36D
:1001F40000800123237010BD0C00002000000000CB
:10020400601F000808B5034B1BB103490348AFF353
:10021400008008BD0000000010000020601F0008DE
:1002240080B483B000AF78607B681B6803F0800300
:10023400802B0CBF01230023DBB218460C37BD46CC
:1002440080BC704780B489B000AF78607B680C33A1
:10025400FB60FB6853E8003FBB60BB6843F02003CE
:10026400FB617B680C33FA69BA617B617969BA69AD
:1002740041E800233B613B69002BE7D100BF00BF8D
:100284002437BD4680BC704780B483B000AF78602B
:100294007B68DB6803F02003202B0CBF01230023C1
:1002A400DBB218460C37BD4680BC704780B483B0BF
:1002B40000AF78607B685B68DBB218460C37BD46DC
:1002C40080BC704780B483B000AF78600B46FB708D
:1002D400FA787B685A6000BF0C37BD4680BC704713
:1002E40080B500AF0248FFF7ADFF00BF80BD00BF7F
:1002F4000038014080B582B000AF0948FFF7C4FF61
:100304000346002B08D00648FFF7D0FF0346FB71D5
:10031400FB79184600F006F800BF0837BD4680BDDB
:100324000038014080B582B000AF0346FB7100BFC6
:100334000748FFF775FF0346002BF9D0FB791946F0
:100344000348FFF7BFFF00BF0837BD4680BD00BFAD
:100354000038014080B500AFFFF7C2FF00BF80BD89
:1003640080B500AFC82000F0E7FA00BF80BD0000F0
:1003740080B483B000AF084B9B69074A43F0040381
:100384009361054B9B6903F004037B607B6800BFAA
:100394000C37BD4680BC70470010024080B483B067
:1003A40000AF78607B681B6803F02003202B0CBF30
:1003B40001230023DBB218460C37BD4680BC7047CE
:1003C40080B483B000AF78607B681B6803F080035F
:1003D400802B0CBF01230023DBB218460C37BD462B
:1003E40080BC704780B483B000AF78607B685B6882
:1003F400DBB218460C37BD4680BC704780B483B06E
:1004040000AF78600B46FB70FA787B685A6000BFD7
:100414000C37BD4680BC704780B582B000AF00F099
:1004240029FA00F023F8FFF7A3FF00F095F9FFF78E
:1004340091FF0D48FFF7B2FF0346002B10D00A4886
:10044400FFF7D0FF0346FB7100BF0748FFF7B8FF73
:100454000346002BF9D0FB7919460348FFF7CEFF7A
:10046400FFF77EFFE5E700BF0038014080B590B09C
:1004740000AF07F1180328220021184601F042FDBD
:100484003B1D00221A605A609A60DA601A610123E7
:10049400BB614FF48033FB6100233B620123BB62E9
:1004A40002237B634FF48033BB634FF4E013FB639D
:1004B40007F11803184600F06BFB0346002B01D02C
:1004C40000F019F80F237B600223BB600023FB605C
:1004D4004FF480633B6100237B613B1D022118467E
:1004E40000F0C4FE0346002B01D000F004F800BF66
:1004F4004037BD4680BD80B400AF72B600BFFEE792
:1005040080B483B000AF7860396000BF0C37BD465B
:1005140080BC704780B485B000AF154B9B69144A0A
:1005240043F001039361124B9B6903F00103BB6029
:10053400BB680F4BDB690E4A43F08053D3610C4B0D
:10054400DB6903F080537B607B680A4B5B68FB606C
:10055400FB6823F0E063FB60FB6843F00073FB601F
:10056400044AFB68536000BF1437BD4680BC704723
:10057400001002400000014080B400AFFEE780B4E8
:1005840000AFFEE780B400AFFEE780B400AFFEE743
:1005940080B400AFFEE780B400AF00BFBD4680BCAE
:1005A400704780B400AF00BFBD4680BC704780B4C4
:1005B40000AF00BFBD4680BC704780B500AF00F0FF
:1005C4009FF900BF80BD80B400AF00BFBD4680BCB2
:1005D4007047000080B400AF044BDB681B0A03F0D3
:1005E40007031846BD4680BC704700BF00ED00E01D
:1005F40080B483B000AF0346FB7197F90730002B3A
:100604000BDBFB7903F01F02064997F907305B09FE
:10061400012000FA02F241F8232000BF0C37BD4646
:1006240080BC704700E100E080B483B000AF0346B3
:100634003960FB7197F90730002B0ADB3B68DAB2AB
:100644000C4997F907301201D2B20B4483F8002306
:100654000AE03B68DAB20849FB7903F00F03043B74
:100664001201D2B20B441A7600BF0C37BD4680BCCF
:10067400704700BF00E100E000ED00E080B489B005
:1006840000AFF860B9607A60FB6803F00703FB61B0
:10069400FB69C3F10703042B28BF0423BB61FB6977
:1006A4000433062B02D9FB69033B00E000237B6182
:1006B4004FF0FF32BB6902FA03F3DA43BB681A4016
:1006C4007B699A404FF0FF317B6901FA03F3D94308
:1006D4007B680B40134318462437BD4680BC7047E3
:1006E40080B483B000AF78607B68DB6843F4005269
:1006F4007B68DA6000BF0C37BD4680BC704780B4AD
:1007040083B000AF78607B681B6923F490427B68F8
:100714001A617B685B6923F02A027B685A6100BF17
:100724000C37BD4680BC704780B485B000AF78609C
:10073400084B9A6907497B6813438B61054B9A6997
:100744007B681340FB60FB6800BF1437BD4680BC68
:10075400704700BF0010024080B58CB000AF07F1B5
:10076400140300221A605A609A60DA601A615A61AE
:100774009A613B4600221A605A609A60DA601A61F4
:100784004FF48040FFF7D0FF0420FFF7CDFF224B4A
:100794003B6009237B600323BB600023FB603B4673
:1007A40019461E4801F01CF81D4B3B6004237B6076
:1007B4003B461946194801F013F8FFF70BFF0346AF
:1007C400002205211846FFF759FF03461946252044
:1007D400FFF72AFF2520FFF70BFF4FF4E1337B617E
:1007E4000023BB610023FB6100233B620C237B627B
:1007F4000023BB620023FB6207F114031946094876
:1008040001F07EFA0748FFF77AFF0648FFF768FF12
:1008140000BF3037BD4680BD02000204000801401D
:100824000400040400380140FFF7CDFE0B480C49D6
:100834000C4A002302E0D458C4500433C4188C4238
:10084400F9D3094A094C002301E013600432A2429F
:10085400FBD301F05FFBFFF7DFFD704700000020D2
:100864000C000020942000080C0000202C00002024
:10087400FEE7000080B500AF084B1B68074A43F051
:1008840010031360032000F02BF90F2000F008F888
:10089400FFF740FE0023184680BD00BF0020024041
:1008A40080B582B000AF7860124B1A68124B1B7887
:1008B40019464FF47A73B3FBF1F3B2FBF3F3184622
:1008C40000F05AF90346002B01D001230EE07B68A7
:1008D4000F2B0AD8002279684FF0FF3000F020F97E
:1008E400064A7B681360002300E00123184608379A
:1008F400BD4680BD00000020080000200400002048
:1009040080B400AF054B1B781A46054B1B68134493
:10091400034A136000BFBD4680BC70470800002036
:100924002800002080B400AF024B1B681846BD4667
:1009340080BC70472800002080B584B000AF786088
:10094400FFF7F0FFB8607B68FB60FB68B3F1FF3F23
:1009540005D00A4B1B781A46FB681344FB6000BFA2
:10096400FFF7E0FF0246BB68D31AFA689A42F7D849
:1009740000BF00BF1037BD4680BD00BF0800002087
:1009840080B485B000AF78607B6803F00703FB6038
:100994000C4BDB68BB60BA684FF6FF031340BB60C7
:1009A400FB681A02BB68134343F0BF6343F400338C
:1009B400BB60044ABB68D36000BF1437BD4680BC2B
:1009C400704700BF00ED00E080B400AF044BDB686B
:1009D4001B0A03F007031846BD4680BC704700BFDE
:1009E40000ED00E080B483B000AF03463960FB71D2
:1009F40097F90730002B0ADB3B68DAB20C4997F908
:100A040007301201D2B20B4483F800230AE03B689A
:100A1400DAB20849FB7903F00F03043B1201D2B2A6
:100A24000B441A7600BF0C37BD4680BC704700BF2C
:100A340000E100E000ED00E080B489B000AFF860B0
:100A4400B9607A60FB6803F00703FB61FB69C3F1DB
:100A54000703042B28BF0423BB61FB690433062B63
:100A640002D9FB69033B00E000237B614FF0FF32B6
:100A7400BB6902FA03F3DA43BB681A407B699A4004
:100A84004FF0FF317B6901FA03F3D9437B680B40D4
:100A9400134318462437BD4680BC704780B582B0E6
:100AA40000AF78607B68013BB3F1807F01D3012301
:100AB4000FE00A4A7B68013B53600F214FF0FF307F
:100AC400FFF790FF054B00229A60044B07221A603F
:100AD400002318460837BD4680BD00BF10E000E083
:100AE40080B582B000AF78607B68072B0FD07B683D
:100AF400062B0CD07B68052B09D07B68042B06D011
:100B04007B68032B03D091210448FFF7F9FC786834
:100B1400FFF736FF00BF0837BD4680BD781F0008C9
:100B240080B586B000AF0346B9607A60FB730023DA
:100B34007B617B680F2B03D9A9210E48FFF7E0FCEA
:100B4400BB680F2B03D9AA210A48FFF7D9FCFFF78A
:100B54003BFF78617A68B9687869FFF76DFF0246F0
:100B640097F90F3011461846FFF73CFF00BF1837BE
:100B7400BD4680BD781F000880B582B000AF7860A4
:100B84007868FFF78BFF034618460837BD4680BDDB
:100B940080B586B000AF78607B68002B01D101235B
:100BA4005AE37B681B68002B1CD07B681B6803F02E
:100BB4000103002B16D17B681B6803F00203002B92
:100BC40010D17B681B6803F00803002B0AD17B68F3
:100BD4001B6803F00403002B04D140F265118F4815
:100BE400FFF78EFC7B681B6803F00103002B00F009
:100BF4009A807B685B68002B0ED07B685B68B3F5DA
:100C0400803F09D07B685B68B3F5A02F04D040F225
:100C14006B118248FFF774FC814B5B6803F00C0393
:100C2400042B0CD07E4B5B6803F00C03082B12D111
:100C34007B4B5B6803F48033B3F5803F0BD1784B77
:100C44001B6803F40033002B6CD07B685B68002BBB
:100C540068D1012300E37B685B68B3F5803F06D16C
:100C64006F4B1B686E4A43F4803313602EE07B683D
:100C74005B68002B0CD16A4B1B68694A23F48033F0
:100C84001360674B1B68664A23F4802313601DE0DE
:100C94007B685B68B3F5A02F0CD1614B1B68604A7D
:100CA40043F4802313605E4B1B685D4A43F4803336
:100CB40013600BE05A4B1B68594A23F480331360CA
:100CC400574B1B68564A23F4802313607B685B6888
:100CD400002B13D0FFF726FE386108E0FFF722FE51
:100CE40002463B69D31A642B01D90323B4E24C4B6B
:100CF4001B6803F40033002BF0D014E0FFF712FE5E
:100D0400386108E0FFF70EFE02463B69D31A642BF4
:100D140001D90323A0E2424B1B6803F40033002BE8
:100D2400F0D100E000BF7B681B6803F00203002BD6
:100D340000F080807B681B69002B08D07B681B69EE
:100D4400012B04D040F29F113448FFF7D9FB7B6894
:100D54005B691F2B04D94FF4D0713048FFF7D0FBE7
:100D64002F4B5B6803F00C03002B0BD02C4B5B6800
:100D740003F00C03082B1CD1294B5B6803F480336C
:100D8400002B16D1264B1B6803F00203002B05D061
:100D94007B681B69012B01D001235DE2204B1B689A
:100DA40023F0F8027B685B69DB001D4913430B6089
:100DB40040E07B681B69002B20D01A4B01221A608B
:100DC400FFF7B0FD386108E0FFF7ACFD02463B6970
:100DD400D31A022B01D903233EE2114B1B6803F003
:100DE4000203002BF0D00E4B1B6823F0F8027B6843
:100DF4005B69DB000A4913430B601BE0094B0022CB
:100E04001A60FFF78FFD38610EE0FFF78BFD024695
:100E14003B69D31A022B07D903231DE2B41F000830
:100E240000100240000042427D4B1B6803F00203A5
:100E3400002BEAD17B681B6803F00803002B40D029
:100E44007B689B69002B08D07B689B69012B04D0CD
:100E54004FF4F0717348FFF753FB7B689B69002BD9
:100E640019D0714B01221A60FFF75CFD386108E06C
:100E7400FFF758FD02463B69D31A022B01D903231D
:100E8400EAE1674B5B6A03F00203002BF0D0012018
:100E940000F0D0FB15E0644B00221A60FFF742FD1E
:100EA400386108E0FFF73EFD02463B69D31A022B86
:100EB40001D90323D0E15A4B5B6A03F00203002BF0
:100EC400F0D17B681B6803F00403002B00F0BF80A3
:100ED4000023FB757B68DB68002B0CD07B68DB6828
:100EE400012B08D07B68DB68052B04D040F20F216E
:100EF4004C48FFF705FB4A4BDB6903F08053002B9A
:100F04000DD1474BDB69464A43F08053D361444BD0
:100F1400DB6903F08053BB60BB680123FB75434B63
:100F24001B6803F48073002B18D1404B1B683F4AA5
:100F340043F480731360FFF7F5FC386108E0FFF7B2
:100F4400F1FC02463B69D31A642B01D9032383E1E4
:100F5400364B1B6803F48073002BF0D07B68DB688E
:100F6400012B06D12E4B1B6A2D4A43F00103136259
:100F74002DE07B68DB68002B0CD1294B1B6A284AC7
:100F840023F001031362264B1B6A254A23F0040352
:100F940013621CE07B68DB68052B0CD1204B1B6AB9
:100FA4001F4A43F0040313621D4B1B6A1C4A43F09F
:100FB400010313620BE01A4B1B6A194A23F0010365
:100FC4001362174B1B6A164A23F0040313627B68EF
:100FD400DB68002B15D0FFF7A5FC38610AE0FFF7AA
:100FE400A1FC02463B69D31A41F28832934201D9EB
:100FF400032331E10A4B1B6A03F00203002BEED0FA
:101004001CE0FFF78FFC386112E0FFF78BFC02460F
:101014003B69D31A41F28832934209D903231BE175
:1010240000100240B41F00088004424200700040D7
:101034008B4B1B6A03F00203002BE6D1FB7D012BD3
:1010440005D1874BDB69864A23F08053D3617B68E3
:10105400DB69002B0CD07B68DB69012B08D07B6833
:10106400DB69022B04D040F2AD217E48FFF748FA39
:101074007B68DB69002B00F0EE80794B5B6803F042
:101084000C03082B00F0CE807B68DB69022B40F058
:10109400B2807B681B6A002B09D07B681B6AB3F59E
:1010A400803F04D040F2B6216E48FFF729FA7B68EE
:1010B4005B6A002B4AD07B685B6AB3F5802F45D00E
:1010C4007B685B6AB3F5002F40D07B685B6AB3F53D
:1010D400402F3BD07B685B6AB3F5801F36D07B68BA
:1010E4005B6AB3F5A01F31D07B685B6AB3F5C01FA0
:1010F4002CD07B685B6AB3F5E01F27D07B685B6A02
:10110400B3F5001F22D07B685B6AB3F5101F1DD0B6
:101114007B685B6AB3F5201F18D07B685B6AB3F504
:10112400301F13D07B685B6AB3F5401F0ED07B6819
:101134005B6AB3F5501F09D07B685B6AB3F5601F27
:1011440004D040F2B7214748FFF7DAF9464B0022B2
:101154001A60FFF7E7FB386108E0FFF7E3FB02469C
:101164003B69D31A022B01D9032375E03C4B1B685E
:1011740003F00073002BF0D17B681B6AB3F5803F4A
:1011840016D17B689B68002B09D07B689B68B3F5FC
:10119400003F04D040F2CD213248FFF7B1F9304B83
:1011A4005B6823F400327B689B682D4913434B60D2
:1011B4002B4B5B6823F474127B68196A7B685B6A47
:1011C4000B43274913434B60274B01221A60FFF757
:1011D400A9FB386108E0FFF7A5FB02463B69D31A77
:1011E400022B01D9032337E01D4B1B6803F0007366
:1011F400002BF0D02FE01C4B00221A60FFF792FB6B
:10120400386108E0FFF78EFB02463B69D31A022BD4
:1012140001D9032320E0124B1B6803F00073002B59
:10122400F0D118E07B68DB69012B01D1012313E0C5
:101234000B4B5B68FB60FB6803F480327B681B6AC2
:101244009A4206D1FB6803F470127B685B6A9A4287
:1012540001D0012300E0002318461837BD4680BDA5
:1012640000100240B41F00086000424280B584B000
:1012740000AF786039607B68002B01D1012376E1EF
:101284007B681B6803F00103002B16D17B681B6885
:1012940003F00203002B10D17B681B6803F00403E6
:1012A400002B0AD17B681B6803F00803002B04D1D0
:1012B40040F236317448FFF723F93B68002B0AD01B
:1012C4003B68012B07D03B68022B04D040F2373136
:1012D4006D48FFF715F96D4B1B6803F007033A6877
:1012E4009A4210D9694B1B6823F0070267493B688F
:1012F40013430B60654B1B6803F007033A689A427B
:1013040001D0012333E17B681B6803F00203002B47
:1013140049D07B681B6803F00403002B05D05C4BA9
:101324005B685B4A43F4E06353607B681B6803F0CB
:101334000803002B05D0564B5B68554A43F46053B1
:1013440053607B689B68002B24D07B689B68802B50
:1013540020D07B689B68902B1CD07B689B68A02B5B
:1013640018D07B689B68B02B14D07B689B68C02B1B
:1013740010D07B689B68D02B0CD07B689B68E02BDB
:1013840008D07B689B68F02B04D040F25D313E4866
:10139400FFF7B6F83E4B5B6823F0F0027B689B686E
:1013A4003B4913434B607B681B6803F00103002B2C
:1013B40051D07B685B68002B0CD07B685B68012B89
:1013C40008D07B685B68022B04D04FF459712E4817
:1013D400FFF796F87B685B68012B07D12C4B1B68E1
:1013E40003F40033002B15D10123C0E07B685B6854
:1013F400022B07D1264B1B6803F00073002B09D185
:101404000123B4E0224B1B6803F00203002B01D13B
:101414000123ACE01E4B5B6823F003027B685B682E
:101424001B4913434B60FFF77DFAF8600AE0FFF7AE
:1014340079FA0246FB68D31A41F28832934201D901
:10144400032394E0124B5B6803F00C027B685B6837
:101454009B009A42EBD10D4B1B6803F007033A68DB
:101464009A4217D2094B1B6823F0070207493B68CD
:1014740013430B60054B1B6803F007033A689A4259
:1014840008D0012373E000BFB41F0008002002400D
:10149400001002407B681B6803F00403002B25D076
:1014A4007B68DB68002B18D07B68DB68B3F5806F42
:1014B40013D07B68DB68B3F5A06F0ED07B68DB6864
:1014C400B3F5C06F09D07B68DB68B3F5E06F04D077
:1014D40040F2A2312848FFF713F8284B5B6823F445
:1014E400E0627B68DB68254913434B607B681B68BB
:1014F40003F00803002B26D07B681B69002B18D04F
:101504007B681B69B3F5806F13D07B681B69B3F5E7
:10151400A06F0ED07B681B69B3F5C06F09D07B68E0
:101524001B69B3F5E06F04D040F2A9311248FEF70D
:10153400E7FF124B5B6823F460527B681B69DB0096
:101544000E4913434B6000F021F802460B4B5B68D5
:101554001B0903F00F030A49CB5C22FA03F3094A7F
:101564001360094B1B681846FFF79AF900231846C5
:101574001037BD4680BD00BFB41F000800100240F4
:1015840060200008000000200400002080B487B020
:1015940000AF0023FB600023BB6000237B610023BA
:1015A4007B6000233B611E4B5B68FB60FB6803F0C0
:1015B4000C03042B02D0082B03D027E0194B3B610A
:1015C40027E0FB689B0C03F00F03174AD35C7B6096
:1015D400FB6803F48033002B10D0114B5B685B0C69
:1015E40003F00103114AD35CBB607B680D4A03FB23
:1015F40002F2BB68B2FBF3F37B6104E07B680C4A44
:1016040002FB03F37B617B693B6102E0054B3B61B9
:1016140000BF3B6918461C37BD4680BC704700BFFD
:101624000010024000127A00782000088820000888
:1016340000093D0080B485B000AF78600A4B1B6898
:101644000A4AA2FB03235B0A7A6802FB03F3FB60EA
:1016540000BFFB685A1EFA60002BF9D100BF00BF1F
:101664001437BD4680BC704700000020D34D621083
:1016740090B488B000AFF860B9607A60FB681A462D
:10168400BB681B0E13441C462268BB687B617B69E4
:1016940093FAA3F33B613B69B3FA83F3DBB29B0098
:1016A4000F2101FA03F3DB431A40BB68FB61FB69BA
:1016B40093FAA3F3BB61BB69B3FA83F3DBB29B0078
:1016C400796801FA03F31343236000BF2037BD4652
:1016D40090BC704790B488B000AFF860B9607A608D
:1016E400FB681A46BB681B0E13441C462268BB6881
:1016F4007B617B6993FAA3F33B613B69B3FA83F3A0
:10170400DBB29B00032101FA03F3DB431A40BB68FD
:10171400FB61FB6993FAA3F3BB61BB69B3FA83F37F
:10172400DBB29B00796801FA03F31343236000BF23
:101734002037BD4690BC704790B488B000AFF860C5
:10174400B9607A60FB681A46BB681B0E13441C46DA
:101754002268BB687B617B6993FAA3F33B613B69B5
:10176400B3FA83F3DBB29B00042101FA03F3DB43F6
:101774001A40BB68FB61FB6993FAA3F3BB61BB69C5
:10178400B3FA83F3DBB29B00796801FA03F31343E2
:10179400236000BF2037BD4690BC704780B487B03B
:1017A40000AFF860B9607A60FB68DA68BB681B0A4E
:1017B400DB431A40BB681B0A7B617B6993FAA3F382
:1017C4003B613B69B3FA83F3DBB219467B688B4018
:1017D4001A43FB68DA6000BF1C37BD4680BC704703
:1017E40080B588B000AF786039607B68684A9342FE
:1017F4001BD07B68674A934217D07B68664A934242
:1018040013D07B68654A93420FD07B68644A934245
:101814000BD07B68634A934207D07B68624A934249
:1018240003D0A2216148FEF76BFE3B681B6823F0DE
:101834007B43002B05D03B681B6803F07B43002BE4
:1018440003D0A3215948FEF75BFE3B681B681B02CB
:101854001B0C7B617B693B613B6993FAA3F3FB60DF
:10186400FB68B3FA83F3DBB2FB6184E00122FB691A
:101874009A407B691340002B7AD0FB69072B06D86A
:1018840040F20112FB6902FA03F3BB6108E0FB6951
:10189400083B4FF0011202FA03F343F08063BB618B
:1018A4003B685B68082B12D13B681B69002B07D08F
:1018B4003B681B69012B03D0BE213C48FEF720FE88
:1018C4003B681B691A46B9697868FFF767FF3B688C
:1018D4005B68002B13D03B685B68042B0FD03B681C
:1018E4005B68082B0BD03B685B68012B07D03B6817
:1018F4005B68092B03D0C5212C48FEF701FE3B6829
:101904005B681A46B9697868FFF7B2FE3B685B68A2
:10191400012B03D03B685B68092B29D13B689B688A
:10192400022B0BD03B689B68012B07D03B689B685C
:10193400032B03D0CD211D48FEF7E2FD3B68DB6895
:10194400002B07D03B68DB68042B03D0CE2117485B
:10195400FEF7D6FD3B689B681A46B9697868FFF7BD
:10196400B9FE3B68DB681A46B9697868FFF7E4FE9C
:10197400FB690133FB617A69FB6922FA03F3002BEB
:101984007FF474AF002318462037BD4680BD00BFE6
:1019940000080140000C0140001001400014014007
:1019A40000180140001C014000200140EC1F000809
:1019B40080B400AF034B5B6803F00C031846BD46CC
:1019C40080BC70470010024080B400AF034B5B68DA
:1019D40003F0F0031846BD4680BC70470010024077
:1019E40080B400AF034B5B6803F4E0631846BD4664
:1019F40080BC70470010024080B400AF034B5B68AA
:101A040003F460531846BD4680BC70470010024082
:101A140080B400AF034B5B6803F480331846BD46C3
:101A240080BC70470010024080B400AF034B5B6879
:101A340003F470131846BD4680BC70470010024082
:101A440080B400AF044B5B685B0C03F001031846E1
:101A5400BD4680BC704700BF0010024080B582B014
:101A640000AF786000F020F802467B681A607B685B
:101A74001B68184600F03EF802467B685A607B6893
:101A84005B68184600F04CF802467B689A607B68F5
:101A94005B68184600F058F802467B68DA6000BFBD
:101AA4000837BD4680BD000080B582B000AF00237A
:101AB4007B60FFF77DFF0346082B0CD0082B0ED864
:101AC400002B02D0042B03D009E0094B7B6009E012
:101AD400074B7B6006E000F04BF8786002E0044BB3
:101AE4007B6000BF7B6818460837BD4680BD00BFD9
:101AF40000127A0080B582B000AF7860FFF764FF0F
:101B040003461B0903F00F03044AD35C1A467B689F
:101B1400D34018460837BD4680BD00BF602000088A
:101B240080B582B000AF7860FFF75AFF03461B0A06
:101B3400044AD35C1A467B68D34018460837BD462E
:101B440080BD00BF7020000880B582B000AF78600F
:101B5400FFF752FF0346DB0A044AD35C1A467B684C
:101B6400D34018460837BD4680BD00BF702000082A
:101B740080B582B000AF00237B6000233B60FFF799
:101B840047FF38603B68002B04D03B68B3F5803FC7
:101B940003D00BE00D4B7B600BE0FFF751FF0346D6
:101BA40001330B4AB2FBF3F37B6002E0074B7B602B
:101BB40000BFFFF739FF03469B0C02337A6802FB30
:101BC40003F318460837BD4680BD00BF00093D0039
:101BD40000127A0080B483B000AF78607B68DB6861
:101BE40003F40053B3F5005F0CBF01230023DBB201
:101BF40018460C37BD4680BC704780B483B000AF34
:101C0400786039607B681B6923F440523B681A434F
:101C14007B681A6100BF0C37BD4680BC704780B436
:101C240083B000AF786039607B685B6923F44072ED
:101C34003B681A437B685A6100BF0C37BD4680BCC1
:101C44007047000080B485B000AFF860B9607A6076
:101C5400BA6813469B0013449A001A447B689B009D
:101C6400B2FBF3F3254AA2FB03235B099BB21B01DE
:101C740099B2BA6813469B0013449A001A447B68CD
:101C84009B00B2FBF3F21D4BA3FB02035B09642030
:101C940000FB03F3D31A1B013233184AA2FB0323BC
:101CA4005B099BB203F0F0039BB20B4499B2BA6890
:101CB40013469B0013449A001A447B689B00B2FBB2
:101CC400F3F20E4BA3FB02035B09642000FB03F356
:101CD400D31A1B013233094AA2FB03235B099BB2CB
:101CE40003F00F039BB20B449BB21A46FB689A6045
:101CF40000BF1437BD4680BC704700BF1F85EB5141
:101D040080B588B000AF786039600123FB77002389
:101D1400BB617B68744A934213D07B68734A9342D5
:101D24000FD07B68724A93420BD07B68714A93420E
:101D340007D07B68704A934203D0CD216F48FEF7E9
:101D4400DFFB3B681B686E4A934203D9CE216B4884
:101D5400FEF7D6FB3B685B68002B08D03B685B68EA
:101D6400B3F5805F03D0CF216448FEF7C9FB3B681D
:101D74009B68B3F5805F11D03B689B68002B0DD046
:101D84003B689B68B3F5405F08D03B689B68B3F53C
:101D9400005F03D0D0215948FEF7B2FB3B68DB68F3
:101DA400002B0DD03B68DB68B3F5806F08D03B682F
:101DB400DB68B3F5C06F03D0D1215048FEF7A0FB18
:101DC4003B681B69002B0FD03B681B69042B0BD0AD
:101DD4003B681B69082B07D03B681B690C2B03D09D
:101DE400D2214648FEF78CFB3B685B69002B12D07E
:101DF4003B685B69B3F5807F0DD03B685B69B3F5E5
:101E0400007F08D03B685B69B3F5407F03D0D321E2
:101E14003A48FEF775FB7868FFF7DCFE0346002BB3
:101E24005CD17B68DB6823F4B05323F00C033A687D
:101E340051683A68D26811433A6812690A431A43EE
:101E44007B68DA603B689B6819467868FFF7D5FEC3
:101E54003B685B6919467868FFF7E1FE07F1080300
:101E64001846FFF7FBFD7B681F4A934202D17B694A
:101E7400BB611AE07B681D4A934202D13B69BB6196
:101E840013E07B681A4A934202D13B69BB610CE0C0
:101E94007B68184A934202D13B69BB6105E07B68C9
:101EA400154A934201D13B69BB61BB69002B15D034
:101EB4003B681B68002B11D00023FB773B681B6831
:101EC4001A46B9697868FFF7BDFE7B689B680F2BDB
:101ED40004D840F235110948FEF712FBFB7F18467F
:101EE4002037BD4680BD00BF00380140004400409B
:101EF40000480040004C00400050004024200008EE
:101F040020AA440003460244934200D1704703F8D8
:101F1400011BF9E770B500260C4D0D4C641BA41091
:101F2400A64209D100F01AF800260A4D0A4C641B97
:101F3400A410A64205D170BD55F8043B984701365C
:101F4400EEE755F8043B98470136F2E78C20000889
:101F54008C2000088C20000890200008F8B500BFF1
:101F6400F8BC08BC9E467047F8B500BFF8BC08BC76
:041F74009E467047CE
:101F78002E2E2F447269766572732F53544D333267
:101F8800463178785F48414C5F4472697665722FB4
:101F98005372632F73746D3332663178785F68617A
:101FA8006C5F636F727465782E6300002E2E2F4469
:101FB8007269766572732F53544D3332463178788F
:101FC8005F48414C5F4472697665722F5372632F84
:101FD80073746D3332663178785F68616C5F7263F1
:101FE800632E63002E2E2F447269766572732F5309
:101FF800544D3332463178785F48414C5F447269BA
:102008007665722F5372632F73746D33326631782D
:10201800785F6C6C5F6770696F2E63002E2E2F449B
:102028007269766572732F53544D3332463178781E
:102038005F48414C5F4472697665722F5372632F13
:1020480073746D3332663178785F6C6C5F75736169
:1020580072742E6300000000000000000000000001
:102068000102030406070809000000000102030436
:1020780002030405060708090A0B0C0D0E0F1010C1
:042088000102000051
:04208C00090200083D
:04209000E50100085E
:0C2094000024F400100000000100000017
:040000050800082DBA
:00000001FF
